:100000000C945D000C9485000C9485000C94850084
:100010000C9485000C9485000C9485000C9485004C
:100020000C9485000C9485000C9485000C9485003C
:100030000C9485000C9485000C9485000C9485002C
:100040000C948C020C9485000C9485000C94850013
:100050000C9485000C9485000C9485000C9485000C
:100060000C9485000C94850000000008000201003B
:100070000003040700000000000000000000000072
:10008000250028002B0000000000240027002A0083
:10009000040404040404040402020202020203032E
:1000A0000303030301020408102040800102040836
:1000B00010200102040810204C0411241FBECFEFB1
:1000C000D8E0DEBFCDBF11E0A0E0B1E0E8E2F9E0AA
:1000D00002C005900D92A232B107D9F721E0A2E249
:1000E000B1E001C01D92A534B207E1F710E0CDE503
:1000F000D0E004C02197FE010E948C04CC35D107CA
:10010000C9F70E94D6020C9492040C94000090E06F
:10011000FC01EC55FF4F249180579F4FFC018491C7
:10012000882399F090E0880F991FFC01EA57FF4F50
:10013000A591B491FC01E458FF4F859194918FB73C
:10014000F894EC91E22BEC938FBF0895AF92BF929D
:10015000CF92DF92EF92FF920F931F93CF93DF9393
:100160006C017B018B01040F151FEB015E01AE18C2
:10017000BF08C017D10759F06991D601ED91FC91E4
:100180000190F081E02DC6010995892B79F7C50111
:10019000DF91CF911F910F91FF90EF90DF90CF9063
:1001A000BF90AF90089590E0FC01E859FF4F249173
:1001B000FC01EC55FF4F3491FC01E057FF4FE491F7
:1001C000EE23C9F0222339F0233001F1A8F42130C5
:1001D00019F1223029F1F0E0EE0FFF1FE458FF4F34
:1001E000A591B4918FB7F894EC91611126C0309528
:1001F0003E233C938FBF08952730A9F02830C9F0E3
:10020000243049F7809180008F7D03C08091800069
:100210008F7780938000DFCF84B58F7784BDDBCF6D
:1002200084B58F7DFBCF8091B0008F778093B00035
:10023000D2CF8091B0008F7DF9CF3E2BDACF3FB780
:10024000F8948091270190912801A0912901B09103
:100250002A0126B5A89B05C02F3F19F00196A11DC4
:10026000B11D3FBFBA2FA92F982F8827BC01CD0100
:10027000620F711D811D911D42E0660F771F881F5F
:10028000991F4A95D1F70895089590E080E0089568
:10029000CF93DF93EC0160E08E810E94D30061E098
:1002A0008E810E94D30060E08E810E94D3008BE893
:1002B00091E00197F1F7DF91CF910895CF92DF920E
:1002C000EF92FF920F931F93CF93DF936C017C010A
:1002D00087E0E80EF11CD0E0C0E0062F10E0B80186
:1002E0000C2E02C0759567950A94E2F76170F701CC
:1002F00081917F010E94D3002196C430D10579F706
:10030000C601DF91CF911F910F91FF90EF90DF9089
:10031000CF900C944801CF92DF92EF92FF920F930F
:100320001F93CF93DF93EC01F62E642F8C810E94F4
:10033000D3008D818F3F19F060E00E94D3000F2D14
:1003400010E08F8584FF25C06E0187E0C80ED11CA8
:10035000F12CE12CB8010E2C02C0759567950A941A
:10036000E2F76170F60181916F010E94D300FFEF07
:10037000EF1AFF0A88E0E816F10461F7CE01DF9179
:10038000CF911F910F91FF90EF90DF90CF900C9441
:100390004801B80184E0759567958A95E1F7CE012B
:1003A0000E945E016F2DCE01DF91CF911F910F91C1
:1003B000FF90EF90DF90CF900C945E0140E0682FAB
:1003C0008DE291E00C948B01CF93DF93823029F47E
:1003D00090913C01986090933C0180934001109271
:1003E000410180E48093420180E18093430180E5F4
:1003F00080934401809131010E94870080913201F5
:100400008F3F11F00E948700809133010E94870086
:10041000CDE2D1E09E012D52314080913C0184FD1E
:100420000AC084E090E02196281739073CF48E81B9
:100430000E948700EFCF88E090E0F5CF8BE39DE04E
:100440000197F1F760E0809131010E94D30060E0F4
:10045000809133010E94D300809132018F3F19F0C7
:1004600060E00E94D30080913C0184FD39C063E0CC
:100470008DE291E00E945E01CBE4D6E4CE010197CB
:10048000F1F763E08DE291E00E945E012197F1F7C0
:1004900063E08DE291E00E945E0183E592E00197C6
:1004A000F1F762E08DE291E00E945E0180913C01F3
:1004B00080620E94DE0184E080933D018CE00E9416
:1004C000DE0181E00E94DE018BE39FE10197F1F7FD
:1004D00082E080933E0186E0DF91CF910C94DE01B3
:1004E00080620E94DE018BE496E40197F1F780912F
:1004F0003C0180620E94DE0183E592E00197F1F702
:1005000080913C0180620E94DE01D0CF41E00E94D8
:100510008B0181E090E008951F920F920FB60F9229
:1005200011242F933F938F939F93AF93BF93809109
:10053000230190912401A0912501B09126013091D1
:10054000220123E0230F2D3758F50196A11DB11D7F
:10055000209322018093230190932401A0932501ED
:10056000B09326018091270190912801A091290143
:10057000B0912A010196A11DB11D8093270190938E
:100580002801A0932901B0932A01BF91AF919F91B7
:100590008F913F912F910F900FBE0F901F90189544
:1005A00026E8230F0296A11DB11DD2CFCF93DF9372
:1005B000CDB7DEB7A1970FB6F894DEBF0FBECDBFA3
:1005C000789484B5826084BD84B5816084BD85B52E
:1005D000826085BD85B5816085BD80916E0081603A
:1005E00080936E00109281008091810082608093E0
:1005F00081008091810081608093810080918000E2
:100600008160809380008091B10084608093B1000C
:100610008091B00081608093B00080917A00846006
:1006200080937A0080917A00826080937A00809132
:100630007A00816080937A0080917A00806880934C
:100640007A001092C10086E00E94870082E00E943A
:10065000E4012EE6222E20E0322E3AE0432E512CE9
:10066000612C712C00E010E020E420937C0080914C
:100670007A00806480937A0080917A0086FDFCCFB6
:1006800080917800E0907900FE2CE82EF7FE03C000
:1006900083E0E80EF11CF594E794F594E794F0926A
:1006A0002C01E0922B0186E00E948700E114F10406
:1006B00009F092C060E086E00E94D300E1E0809102
:1006C00040018111E0E0E195F0E0E35DFE4F8489B7
:1006D00080680E94DE0140E150E06CE071E08DE254
:1006E00091E00E94A600E0914001E23008F0BCC019
:1006F000E150F0E0E35DFE4F848980680E94DE01F6
:10070000C0902B01D0902C010D2C000CEE08FF089E
:10071000F7FEACC041E06DE28DE291E00E948B01FA
:1007200022273327A9012C193D094E095F0919A277
:10073000CE0181967C01CA01B901A30192010E94F8
:100740006A04605DF70162937F012115310541055F
:10075000510589F7E114F10461F001900020E9F7F7
:100760003197AF014E195F09B7018DE291E00E9408
:10077000A60043E050E06DE171E08DE291E00E945F
:10078000A6000E941F014B015C0184E6C82ED12CFB
:10079000E12CF12C0E941F01681979098A099B0933
:1007A000683E734081059105A8F3F1E0CF1AD108A6
:1007B000E108F10828EE820E23E0921EA11CB11C74
:1007C000C114D104E104F10429F70115110509F45C
:1007D0004BCF0E94000048CF9FEFE916F10411F4BF
:1007E00061E069CFF1018491833021F148F48130D7
:1007F000B9F08230D1F0F0E8EF16F1048CF75ACF5F
:10080000873011F1883041F18430A9F78091800060
:10081000806280938000F0928B00E0928A004ECF3D
:1008200084B5806884BDE7BC49CF84B5806284BD4F
:10083000E8BC44CF80918000806880938000F09273
:100840008900E09288003ACF8091B0008068809360
:10085000B000E092B30032CF8091B000806280930C
:10086000B000E092B4002ACFE1E043CFA7019601A7
:1008700019A2CE0181967C01CA01B901A30192019E
:100880000E946A04605DF70162937F0121153105C2
:100890004105510589F75ECFEDE2F1E01382128246
:1008A00084E091E0918380838CE084838FEF858363
:1008B0008BE0868385E0878384E0808783E081877F
:1008C00082E082871386148615861686178681E055
:1008D0000C94E401A1E21A2EAA1BBB1BFD010DC062
:1008E000AA1FBB1FEE1FFF1FA217B307E407F507E0
:1008F00020F0A21BB30BE40BF50B661F771F881FBC
:10090000991F1A9469F760957095809590959B0151
:10091000AC01BD01CF010895EE0FFF1F0590F491CA
:08092000E02D0994F894FFCFCB
:10092800000000008602A600450144014C45442011
:100938004272696768746E6573733A2000202020DC
:020948000000AD
:00000001FF
