:100000000C945D000C9485000C9485000C94850084
:100010000C9485000C9485000C9485000C9485004C
:100020000C9485000C9485000C9485000C9485003C
:100030000C9485000C9485000C9485000C9485002C
:100040000C94DA020C9485000C9485000C948500C5
:100050000C9485000C9485000C9485000C9485000C
:100060000C9485000C94850000000008000201003B
:100070000003040700000000000000000000000072
:10008000250028002B0000000000240027002A0083
:10009000040404040404040402020202020203032E
:1000A0000303030301020408102040800102040836
:1000B0001020010204081020640411241FBECFEF99
:1000C000D8E0DEBFCDBF11E0A0E0B1E0E8E5F9E0A7
:1000D00002C005900D92AC31B107D9F721E0ACE137
:1000E000B1E001C01D92A134B207E1F710E0CDE507
:1000F000D0E004C02197FE010E94A404CC35D107B2
:10010000C9F70E9424030C94AA040C94000090E008
:10011000FC01EC55FF4F249180579F4FFC018491C7
:10012000882399F090E0880F991FFC01EA57FF4F50
:10013000A591B491FC01E458FF4F859194918FB73C
:10014000F894EC91E22BEC938FBF0895AF92BF929D
:10015000CF92DF92EF92FF920F931F93CF93DF9393
:100160006C017B018B01040F151FEB015E01AE18C2
:10017000BF08C017D10759F06991D601ED91FC91E4
:100180000190F081E02DC6010995892B79F7C50111
:10019000DF91CF911F910F91FF90EF90DF90CF9063
:1001A000BF90AF90089590E0FC01E859FF4F249173
:1001B000FC01EC55FF4F3491FC01E057FF4FE491F7
:1001C000EE23C9F0222339F0233001F1A8F42130C5
:1001D00019F1223029F1F0E0EE0FFF1FE458FF4F34
:1001E000A591B4918FB7F894EC91611126C0309528
:1001F0003E233C938FBF08952730A9F02830C9F0E3
:10020000243049F7809180008F7D03C08091800069
:100210008F7780938000DFCF84B58F7784BDDBCF6D
:1002200084B58F7DFBCF8091B0008F778093B00035
:10023000D2CF8091B0008F7DF9CF3E2BDACF3FB780
:10024000F8948091210190912201A0912301B09115
:10025000240126B5A89B05C02F3F19F00196A11DCA
:10026000B11D3FBFBA2FA92F982F8827BC01CD0100
:10027000620F711D811D911D42E0660F771F881F5F
:10028000991F4A95D1F70895089590E080E0089568
:100290008F929F92AF92BF920F931F93CF93DF9352
:1002A000CDB7DEB7A1970FB6F894DEBF0FBECDBFB6
:1002B00019A2423008F44AE08E010F5D1F4F842ED0
:1002C000912CB12CA12CA50194010E948204E62F4F
:1002D000B901CA01EA3044F5E05DD801EE938D0121
:1002E000232B242B252B79F790E080E0109769F0E1
:1002F000FD0101900020E9F73197AF014A1B5B0B2C
:10030000BD0189E291E00E94A600A1960FB6F89483
:10031000DEBF0FBECDBFDF91CF911F910F91BF9078
:10032000AF909F908F900895E95CD7CFCF93DF93E4
:10033000EC0160E08E810E94D30061E08E810E941A
:10034000D30060E08E810E94D3008BE891E001979A
:10035000F1F7DF91CF910895CF92DF92EF92FF9264
:100360000F931F93CF93DF936C017C0187E0E80E1E
:10037000F11CD0E0C0E0062F10E0B8010C2E02C046
:10038000759567950A94E2F76170F70181917F0195
:100390000E94D3002196C430D10579F7C601DF91C0
:1003A000CF911F910F91FF90EF90DF90CF900C9421
:1003B0009601CF92DF92EF92FF920F931F93CF930C
:1003C000DF93EC01F62E642F8C810E94D3008D8187
:1003D0008F3F19F060E00E94D3000F2D10E08F8551
:1003E00084FF25C06E0187E0C80ED11CF12CE12CE2
:1003F000B8010E2C02C0759567950A94E2F76170FA
:10040000F60181916F010E94D300FFEFEF1AFF0AFE
:1004100088E0E816F10461F7CE01DF91CF911F91DA
:100420000F91FF90EF90DF90CF900C949601B80160
:1004300084E0759567958A95E1F7CE010E94AC013D
:100440006F2DCE01DF91CF911F910F91FF90EF9013
:10045000DF90CF900C94AC0140E0682F89E291E0EE
:100460000C94D901CF93DF93823029F49091380115
:1004700098609093380180933C0110923D0180E494
:1004800080933E0180E180933F0180E580934001AD
:1004900080912D010E94870080912E018F3F11F0E5
:1004A0000E94870080912F010E948700C9E2D1E05D
:1004B0009E01295231408091380184FD0AC084E0B8
:1004C00090E02196281739073CF48E810E9487001E
:1004D000EFCF88E090E0F5CF8BE39DE00197F1F757
:1004E00060E080912D010E94D30060E080912F0197
:1004F0000E94D30080912E018F3F19F060E00E948E
:10050000D3008091380184FD39C063E089E291E035
:100510000E94AC01CBE4D6E4CE010197F1F763E091
:1005200089E291E00E94AC012197F1F763E089E252
:1005300091E00E94AC0183E592E00197F1F762E05F
:1005400089E291E00E94AC018091380180620E94B2
:100550002C0284E0809339018CE00E942C0281E01F
:100560000E942C028BE39FE10197F1F782E08093D8
:100570003A0186E0DF91CF910C942C0280620E94B8
:100580002C028BE496E40197F1F7809138018062A8
:100590000E942C0283E592E00197F1F780913801E7
:1005A00080620E942C02D0CF41E00E94D90181E0FC
:1005B00090E008951F920F920FB60F9211242F937F
:1005C0003F938F939F93AF93BF9380911D01909121
:1005D0001E01A0911F01B091200130911C0123E068
:1005E000230F2D3758F50196A11DB11D20931C0135
:1005F00080931D0190931E01A0931F01B0932001D1
:100600008091210190912201A0912301B0912401B8
:100610000196A11DB11D8093210190932201A09309
:100620002301B0932401BF91AF919F918F913F918E
:100630002F910F900FBE0F901F90189526E8230F53
:100640000296A11DB11DD2CF789484B5826084BD7D
:1006500084B5816084BD85B5826085BD85B58160C6
:1006600085BD80916E00816080936E001092810044
:1006700080918100826080938100809181008160FF
:1006800080938100809180008160809380008091C0
:10069000B10084608093B1008091B000816080934C
:1006A000B00080917A00846080937A0080917A0013
:1006B000826080937A0080917A00816080937A00D2
:1006C00080917A00806880937A001092C10086E061
:1006D0000E94870082E00E943202E1E080913C01AA
:1006E0008111E0E0E195F0E0E75DFE4F84898068EC
:1006F0000E942C024DE050E06EE071E089E291E052
:100700000E94A60090E4D92E2EE6E22E20E0F22EE2
:1007100000E010E0D0927C0080917A0080648093A9
:100720007A0080917A0086FDFCCF909178008091CC
:10073000790089279827892790932801809327019A
:10074000E0913C01E23008F077C0E150F0E0E75D75
:10075000FE4F848980680E942C02C0912501D091AF
:10076000260186E00E948700209709F067C060E0BC
:1007700086E00E94D3008090250190902601092CEC
:10078000000CAA08BB084AE0C501B401B7FE0EC0C0
:1007900041E06DE289E291E00E94D9016627772766
:1007A000CB01681979098A099B094AE00E9448012E
:1007B0002091000130910101809125019091260145
:1007C000820F931F909326018093250101978E3FFE
:1007D000910538F03195219531093093010120932D
:1007E00000010E941F014B015C0182E3482E512C45
:1007F000612C712C0E941F01681979098A099B09D3
:10080000683E734081059105A8F3F1E04F1A510845
:100810006108710828EE820E23E0921EA11CB11C13
:10082000411451046104710429F70115110509F4FB
:1008300071CF0E9400006ECFE1E088CFCF3FD1059D
:1008400011F461E095CFF7018491833019F140F400
:100850008130B1F08230C9F0C038D10594F787CF2C
:10086000873011F1883041F18430B1F780918000F8
:10087000806280938000D0938B00C0938A007BCFEE
:1008800084B5806884BDC7BD76CF84B5806284BDE1
:10089000C8BD71CF80918000806880938000D09324
:1008A0008900C093880067CF8091B00080688093F2
:1008B000B000C093B3005FCF8091B000806280939E
:1008C000B000C093B40057CFE9E2F1E01382128286
:1008D00086E091E0918380838CE084838FEF858331
:1008E0008BE0868385E0878384E0808783E081874F
:1008F00082E082871386148615861686178681E025
:100900000C943202A1E21A2EAA1BBB1BFD010DC0E2
:10091000AA1FBB1FEE1FFF1FA217B307E407F507AF
:1009200020F0A21BB30BE40BF50B661F771F881F8B
:10093000991F1A9469F760957095809590959B0121
:10094000AC01BD01CF010895EE0FFF1F0590F4919A
:08095000E02D0994F894FFCF9B
:10095800050000000000D402A60045014401416ED4
:0C096800616C6F6720526561643A2000EA
:00000001FF
