:100000000C945D000C9485000C9485000C94850084
:100010000C9485000C9485000C9485000C9485004C
:100020000C9485000C9485000C9485000C9485003C
:100030000C9485000C9485000C9485000C9485002C
:100040000C94DC020C9485000C9485000C948500C3
:100050000C9485000C9485000C9485000C9485000C
:100060000C9485000C94850000000008000201003B
:100070000003040700000000000000000000000072
:10008000250028002B0000000000240027002A0083
:10009000040404040404040402020202020203032E
:1000A0000303030301020408102040800102040836
:1000B0001020010204081020F50311241FBECFEF09
:1000C000D8E0DEBFCDBF11E0A0E0B1E0E6E3F8E0AC
:1000D00002C005900D92AE34B107D9F721E0AEE42D
:1000E000B1E001C01D92AF36B207E1F710E0CDE5F7
:1000F000D0E004C02197FE010E941304CC35D10743
:10010000C9F70E9426030C9419040C94000090E097
:10011000FC01EC55FF4F249180579F4FFC018491C7
:10012000882399F090E0880F991FFC01EA57FF4F50
:10013000A591B491FC01E458FF4F859194918FB73C
:10014000F894EC91E22BEC938FBF0895AF92BF929D
:10015000CF92DF92EF92FF920F931F93CF93DF9393
:100160006C017B018B01040F151FEB015E01AE18C2
:10017000BF08C017D10759F06991D601ED91FC91E4
:100180000190F081E02DC6010995892B79F7C50111
:10019000DF91CF911F910F91FF90EF90DF90CF9063
:1001A000BF90AF90089590E0FC01E859FF4F249173
:1001B000FC01EC55FF4F3491FC01E057FF4FE491F7
:1001C000EE23C9F0222339F0233001F1A8F42130C5
:1001D00019F1223029F1F0E0EE0FFF1FE458FF4F34
:1001E000A591B4918FB7F894EC91611126C0309528
:1001F0003E233C938FBF08952730A9F02830C9F0E3
:10020000243049F7809180008F7D03C08091800069
:100210008F7780938000DFCF84B58F7784BDDBCF6D
:1002200084B58F7DFBCF8091B0008F778093B00035
:10023000D2CF8091B0008F7DF9CF3E2BDACF3FB780
:10024000F8948091530190915401A0915501B0917F
:10025000560126B5A89B05C02F3F19F00196A11D98
:10026000B11D3FBFBA2FA92F982F8827BC01CD0100
:10027000620F711D811D911D42E0660F771F881F5F
:10028000991F4A95D1F708958F929F92AF92BF928E
:10029000CF92DF92EF92FF924B015C010E941F010F
:1002A0006B017C010E941F016C197D098E099F0959
:1002B000683E734081059105A8F321E0821A9108F8
:1002C000A108B10888EEC80E83E0D81EE11CF11C1D
:1002D00081149104A104B10429F7FF90EF90DF90FD
:1002E000CF90BF90AF909F908F900895089590E029
:1002F00080E00895FC0101900020E9F73197AF01FB
:10030000481B590BBC0187E591E00C94A600CF93E4
:10031000DF93EC0160E08E810E94D30061E08E816A
:100320000E94D30060E08E810E94D3008BE891E0B0
:100330000197F1F7DF91CF910895CF92DF92EF927D
:10034000FF920F931F93CF93DF936C017C0187E0A3
:10035000E80EF11CD0E0C0E0062F10E0B8010C2E32
:1003600002C0759567950A94E2F76170F701819173
:100370007F010E94D3002196C430D10579F7C601D0
:10038000DF91CF911F910F91FF90EF90DF90CF9071
:100390000C948701CF92DF92EF92FF920F931F93FD
:1003A000CF93DF93EC01F62E642F8C810E94D30053
:1003B0008D818F3F19F060E00E94D3000F2D10E077
:1003C0008F8584FF25C06E0187E0C80ED11CF12CFB
:1003D000E12CB8010E2C02C0759567950A94E2F7DE
:1003E0006170F60181916F010E94D300FFEFEF1A57
:1003F000FF0A88E0E816F10461F7CE01DF91CF91A2
:100400001F910F91FF90EF90DF90CF900C94870198
:10041000B80184E0759567958A95E1F7CE010E9451
:100420009D016F2DCE01DF91CF911F910F91FF9014
:10043000EF90DF90CF900C949D0140E0682F87E50E
:1004400091E00C94CA0181E00E941D028BE39FE1C0
:100450000197F1F70895CF93DF93823029F49091BB
:10046000660198609093660180936A0110926B0117
:1004700080E480936C0180E180936D0180E580933E
:100480006E0180915B010E94870080915C018F3F2B
:1004900011F00E94870080915D010E948700C7E5EE
:1004A000D1E09E01275531408091660184FD0AC04C
:1004B00084E090E02196281739073CF48E810E9451
:1004C0008700EFCF88E090E0F5CF8BE39DE00197C8
:1004D000F1F760E080915B010E94D30060E08091C1
:1004E0005D010E94D30080915C018F3F19F060E0B4
:1004F0000E94D3008091660184FD34C063E087E5EB
:1005000091E00E949D01CBE4D6E4CE010197F1F782
:1005100063E087E591E00E949D012197F1F763E098
:1005200087E591E00E949D0183E592E00197F1F754
:1005300062E087E591E00E949D0180916601806202
:100540000E941D0284E0809367018CE00E941D02DE
:100550000E94230282E08093680186E0DF91CF91C0
:100560000C941D0280620E941D028BE496E40197A8
:10057000F1F78091660180620E941D0283E592E09E
:100580000197F1F78091660180620E941D02D5CF2C
:1005900090916A01891710F08FEF890FE82FF0E032
:1005A000E95AFE4F848980680C941D0241E00E9444
:1005B000CA0181E090E008951F920F920FB60F924A
:1005C00011242F933F938F939F93AF93BF93809169
:1005D0004F0190915001A0915101B0915201309181
:1005E0004E0123E0230F2D3758F50196A11DB11DB3
:1005F00020934E0180934F0190935001A09351019D
:10060000B09352018091530190915401A0915501F2
:10061000B09156010196A11DB11D80935301909395
:100620005401A0935501B0935601BF91AF919F9192
:100630008F913F912F910F900FBE0F901F901895A3
:1006400026E8230F0296A11DB11DD2CF789484B560
:10065000826084BD84B5816084BD85B5826085BDBE
:1006600085B5816085BD80916E00816080936E004C
:10067000109281008091810082608093810080913E
:1006800081008160809381008091800081608093EF
:1006900080008091B10084608093B1008091B000AF
:1006A00081608093B00080917A00846080937A00AA
:1006B00080917A00826080937A0080917A008160D4
:1006C00080937A0080917A00806880937A001092FB
:1006D000C1008DE00E9487008CE00E94870088E0C6
:1006E0000E94870082E00E942B028CE091E00E9431
:1006F0007A0160ED77E080E090E00E9444010E9482
:100700002302C0E0D0E061E088E00E94D3000E94B4
:10071000230280E00E94C8028BE191E00E947A01EE
:1007200081E00E94C80289E291E00E947A0164EFB0
:1007300071E080E090E00E94440160E088E00E9467
:10074000D30064EF71E080E090E00E94440161E03A
:100750008CE00E94D3000E94230280E00E94C80225
:100760008BE191E00E947A0181E00E94C80284E35B
:1007700091E00E947A0164EF71E080E090E00E94D5
:10078000440160E08CE00E94D30064EF71E080E0FF
:1007900090E00E94440161E08DE00E94D3000E943D
:1007A000230280E00E94C8028BE191E00E947A015E
:1007B00081E00E94C80282E491E00E947A0164EF25
:1007C00071E080E090E00E94440160E08DE00E94D2
:1007D000D30064EF71E080E090E00E944401209734
:1007E00009F491CF0E9400008ECFE7E5F1E013827B
:1007F000128284E091E09183808387E084838FEF8D
:10080000858386E0868385E0878384E0808783E034
:10081000818782E08287138614861586168617865E
:1008200081E00C942B02EE0FFF1F0590F491E02D58
:060830000994F894FFCFCB
:1008360000000000D602A6007701760154726166B8
:100846006669632053797374656D005472616666D8
:100856006963204C6967687400475245454E202DF0
:1008660020474F0059454C4C4F57202D20574149A2
:0E0876005400524544202D2053544F50000092
:00000001FF
