:100000000C945D000C9485000C9485000C94850084
:100010000C9485000C9485000C9485000C9485004C
:100020000C9485000C9485000C9485000C9485003C
:100030000C9485000C9485000C9485000C9485002C
:100040000C94DA020C9485000C9485000C948500C5
:100050000C9485000C9485000C9485000C9485000C
:100060000C9485000C94850000000008000201003B
:100070000003040700000000000000000000000072
:10008000250028002B0000000000240027002A0083
:10009000040404040404040402020202020203032E
:1000A0000303030301020408102040800102040836
:1000B0001020010204081020080411241FBECFEFF5
:1000C000D8E0DEBFCDBF11E0A0E0B1E0EAE0F9E0AA
:1000D00002C005900D92A432B107D9F721E0A4E245
:1000E000B1E001C01D92A734B207E1F710E0CDE501
:1000F000D0E004C02197FE010E947D04CC35D107D9
:10010000C9F70E9424030C9483040C94000090E02F
:10011000FC01EC55FF4F249180579F4FFC018491C7
:10012000882399F090E0880F991FFC01EA57FF4F50
:10013000A591B491FC01E458FF4F859194918FB73C
:10014000F894EC91E22BEC938FBF0895AF92BF929D
:10015000CF92DF92EF92FF920F931F93CF93DF9393
:100160006C017B018B01040F151FEB015E01AE18C2
:10017000BF08C017D10759F06991D601ED91FC91E4
:100180000190F081E02DC6010995892B79F7C50111
:10019000DF91CF911F910F91FF90EF90DF90CF9063
:1001A000BF90AF90089590E0FC01E859FF4F249173
:1001B000FC01EC55FF4F3491FC01E057FF4FE491F7
:1001C000EE23C9F0222339F0233001F1A8F42130C5
:1001D00019F1223029F1F0E0EE0FFF1FE458FF4F34
:1001E000A591B4918FB7F894EC91611126C0309528
:1001F0003E233C938FBF08952730A9F02830C9F0E3
:10020000243049F7809180008F7D03C08091800069
:100210008F7780938000DFCF84B58F7784BDDBCF6D
:1002200084B58F7DFBCF8091B0008F778093B00035
:10023000D2CF8091B0008F7DF9CF3E2BDACF3FB780
:10024000F8948091290190912A01A0912B01B091FD
:100250002C0126B5A89B05C02F3F19F00196A11DC2
:10026000B11D3FBFBA2FA92F982F8827BC01CD0100
:10027000620F711D811D911D42E0660F771F881F5F
:10028000991F4A95D1F70895089590E080E0089568
:100290008F929F92AF92BF920F931F93CF93DF9352
:1002A000CDB7DEB7A1970FB6F894DEBF0FBECDBFB6
:1002B00019A2423008F44AE08E010F5D1F4F842ED0
:1002C000912CB12CA12CA50194010E944504E62F8C
:1002D000B901CA01EA3044F5E05DD801EE938D0121
:1002E000232B242B252B79F790E080E0109769F0E1
:1002F000FD0101900020E9F73197AF014A1B5B0B2C
:10030000BD018FE291E00E94A600A1960FB6F8947D
:10031000DEBF0FBECDBFDF91CF911F910F91BF9078
:10032000AF909F908F900895E95CD7CFCF93DF93E4
:10033000EC0160E08E810E94D30061E08E810E941A
:10034000D30060E08E810E94D3008BE891E001979A
:10035000F1F7DF91CF910895CF92DF92EF92FF9264
:100360000F931F93CF93DF936C017C0187E0E80E1E
:10037000F11CD0E0C0E0062F10E0B8010C2E02C046
:10038000759567950A94E2F76170F70181917F0195
:100390000E94D3002196C430D10579F7C601DF91C0
:1003A000CF911F910F91FF90EF90DF90CF900C9421
:1003B0009601CF92DF92EF92FF920F931F93CF930C
:1003C000DF93EC01F62E642F8C810E94D3008D8187
:1003D0008F3F19F060E00E94D3000F2D10E08F8551
:1003E00084FF25C06E0187E0C80ED11CF12CE12CE2
:1003F000B8010E2C02C0759567950A94E2F76170FA
:10040000F60181916F010E94D300FFEFEF1AFF0AFE
:1004100088E0E816F10461F7CE01DF91CF911F91DA
:100420000F91FF90EF90DF90CF900C949601B80160
:1004300084E0759567958A95E1F7CE010E94AC013D
:100440006F2DCE01DF91CF911F910F91FF90EF9013
:10045000DF90CF900C94AC0140E0682F8FE291E0E8
:100460000C94D901CF93DF93823029F490913E010F
:10047000986090933E01809342011092430180E482
:100480008093440180E18093450180E5809346019B
:10049000809133010E948700809134018F3F11F0D9
:1004A0000E948700809135010E948700CFE2D1E051
:1004B0009E012F52314080913E0184FD0AC084E0AC
:1004C00090E02196281739073CF48E810E9487001E
:1004D000EFCF88E090E0F5CF8BE39DE00197F1F757
:1004E00060E0809133010E94D30060E0809135018B
:1004F0000E94D300809134018F3F19F060E00E9488
:10050000D30080913E0184FD39C063E08FE291E029
:100510000E94AC01CBE4D6E4CE010197F1F763E091
:100520008FE291E00E94AC012197F1F763E08FE246
:1005300091E00E94AC0183E592E00197F1F762E05F
:100540008FE291E00E94AC0180913E0180620E94A6
:100550002C0284E080933F018CE00E942C0281E019
:100560000E942C028BE39FE10197F1F782E08093D8
:10057000400186E0DF91CF910C942C0280620E94B2
:100580002C028BE496E40197F1F780913E018062A2
:100590000E942C0283E592E00197F1F780913E01E1
:1005A00080620E942C02D0CF41E00E94D90181E0FC
:1005B00090E008951F920F920FB60F9211242F937F
:1005C0003F938F939F93AF93BF9380912501909119
:1005D0002601A0912701B09128013091240123E048
:1005E000230F2D3758F50196A11DB11D209324012D
:1005F0008093250190932601A0932701B0932801B1
:100600008091290190912A01A0912B01B0912C0198
:100610000196A11DB11D8093290190932A01A093F9
:100620002B01B0932C01BF91AF919F918F913F917E
:100630002F910F900FBE0F901F90189526E8230F53
:100640000296A11DB11DD2CF789484B5826084BD7D
:1006500084B5816084BD85B5826085BD85B58160C6
:1006600085BD80916E00816080936E001092810044
:1006700080918100826080938100809181008160FF
:1006800080938100809180008160809380008091C0
:10069000B10084608093B1008091B000816080934C
:1006A000B00080917A00846080937A0080917A0013
:1006B000826080937A0080917A00816080937A00D2
:1006C00080917A00806880937A001092C10086E061
:1006D0000E94870082E00E943202812C912C5401FA
:1006E0008A94C0E0D0E0E0902D01F0902E016E2DB4
:1006F00086E00E94D3008091000190910101D70112
:10070000A80FB91FB0932E01A0932D019D01215078
:1007100031092E3F310538F09195819591099093DB
:1007200001018093000124E630E00E947604A501D7
:1007300094010E94260469017A01E1E0809142015E
:100740008111E0E0E195F0E0E15DFE4F8489806891
:100750000E942C024FE050E06EE071E08FE291E0E9
:100760000E94A600E0914201E23008F04FC0E15043
:10077000F0E0E15DFE4F848980680E942C024AE02F
:10078000C701B601F7FE0EC041E06DE28FE291E0D5
:100790000E94D90166277727CB016C197D098E0944
:1007A0009F094AE00E94480144E050E06EE171E098
:1007B0008FE291E00E94A6000E941F012B013C01E4
:1007C00082E3C82ED12CE12CF12C0E941F01641968
:1007D000750986099709683E734081059105A8F35C
:1007E00021E0C21AD108E108F10888EE480E83E042
:1007F000581E611C711CC114D104E104F10429F7D5
:10080000209709F470CF0E9400006DCFE1E0B0CFD7
:10081000EFE2F1E01382128286E091E0918380831F
:100820008CE084838FEF85838BE0868385E08783EC
:1008300084E0808783E0818782E082871386148644
:1008400015861686178681E00C943202052E97FBDA
:100850001EF400940E943D0457FD07D00E944504F9
:1008600007FC03D04EF40C943D0450954095309510
:1008700021953F4F4F4F5F4F08959095809570950C
:1008800061957F4F8F4F9F4F0895A1E21A2EAA1BAB
:10089000BB1BFD010DC0AA1FBB1FEE1FFF1FA21730
:1008A000B307E407F50720F0A21BB30BE40BF50B2D
:1008B000661F771F881F991F1A9469F760957095B6
:1008C000809590959B01AC01BD01CF010895A29F39
:1008D000B001B39FC001A39F700D811D1124911D14
:1008E000B29F700D811D1124911D08950E9467040F
:1008F000B7FF0895821B930B0895EE0FFF1F05901D
:0A090000F491E02D0994F894FFCF64
:10090A00050000000000D402A600450144014C4540
:10091A0044204272696768746E6573733A002520D1
:04092A002020000089
:00000001FF
