:100000000C945C000C9479000C9479000C947900A9
:100010000C9479000C9479000C9479000C9479007C
:100020000C9479000C9479000C9479000C9479006C
:100030000C9479000C9479000C9479000C9479005C
:100040000C9441010C9479000C9479000C94790083
:100050000C9479000C9479000C9479000C9479003C
:100060000C9479000C947900000000080002010053
:100070000003040700000000000000000000000072
:10008000250028002B0000000000240027002A0083
:10009000040404040404040402020202020203032E
:1000A0000303030301020408102040800102040836
:1000B000102001020408102011241FBECFEFD8E049
:1000C000DEBFCDBF11E0A0E0B1E0EAEAF4E002C09B
:1000D00005900D92A831B107D9F721E0A8E1B1E070
:1000E00001C01D92A132B207E1F70E948B010C946E
:1000F00053020C94000090E0FC01EC55FF4F24915A
:1001000080579F4FFC018491882399F090E0880FDD
:10011000991FFC01EA57FF4FA591B491FC01E458E7
:10012000FF4F859194918FB7F894EC91E22BEC936B
:100130008FBF089590E0FC01E859FF4F2491FC0126
:10014000EC55FF4F3491FC01E057FF4FE491EE2353
:10015000C9F0222339F0233001F1A8F4213019F13C
:10016000223029F1F0E0EE0FFF1FE458FF4FA59178
:10017000B4918FB7F894EC91611126C030953E236D
:100180003C938FBF08952730A9F02830C9F0243060
:1001900049F7809180008F7D03C0809180008F7728
:1001A00080938000DFCF84B58F7784BDDBCF84B5AB
:1001B0008F7DFBCF8091B0008F778093B000D2CF3E
:1001C0008091B0008F7DF9CF3E2BDACF3FB7F89406
:1001D00080911D0190911E01A0911F01B0912001FD
:1001E00026B5A89B05C02F3F19F00196A11DB11D92
:1001F0003FBFBA2FA92F982F8827BC01CD01620FCE
:10020000711D811D911D42E0660F771F881F991F88
:100210004A95D1F708958F929F92AF92BF92CF9255
:10022000DF92EF92FF920E94E6004B015C0188EBA7
:10023000C82E8BE0D82EE12CF12C0E94E600681924
:1002400079098A099B09683E734081059105A8F3E5
:1002500021E0C21AD108E108F10888EE880E83E097
:10026000981EA11CB11CC114D104E104F10429F7AA
:10027000FF90EF90DF90CF90BF90AF909F908F90C6
:1002800008951F920F920FB60F9211242F933F9350
:100290008F939F93AF93BF938091190190911A010F
:1002A000A0911B01B0911C013091180123E0230F94
:1002B0002D3758F50196A11DB11D2093180180938B
:1002C000190190931A01A0931B01B0931C01809116
:1002D0001D0190911E01A0911F01B0912001019676
:1002E000A11DB11D80931D0190931E01A0931F01BC
:1002F000B0932001BF91AF919F918F913F912F912A
:100300000F900FBE0F901F90189526E8230F0296AE
:10031000A11DB11DD2CF789484B5826084BD84B50F
:10032000816084BD85B5826085BD85B5816085BDF0
:1003300080916E00816080936E00109281008091A8
:100340008100826080938100809181008160809330
:100350008100809180008160809380008091B10055
:1003600084608093B1008091B00081608093B00080
:1003700080917A00846080937A0080917A00826014
:1003800080937A0080917A00816080937A008091D6
:100390007A00806880937A001092C10008E011E032
:1003A00050E0E52E51E0F52EC0E1D1E088812296A3
:1003B0000E947B00F7018081F2E0EF0EF11C0E94A9
:1003C0007B00F80180810E5F1F4F0E947B00F1E0EF
:1003D000C831DF0759F740E0842E40E0942E00E05A
:1003E00011E038E0E32E31E0F32EC0E1D1E088E007
:1003F000C82E81E0D82E90E0A92E91E0B92E20E100
:10040000622E21E0722EF3018081F2E06F0E711CEA
:1004100061E00E949A00F5018081F2E0AF0EB11C0C
:1004200060E00E949A00F6018081F2E0CF0ED11CBC
:1004300060E00E949A0088E1681681E0780619F76A
:10044000D880229660E08D2D0E949A00F701C0802E
:10045000F2E0EF0EF11C61E08C2D0E949A000E94E8
:100460000B0160E08C2D0E949A00F801C0800E5FA5
:100470001F4F61E08C2D0E949A000E940B0160E0EA
:100480008C2D0E949A0061E08D2D0E949A00F1E06F
:10049000C831DF0709F0ABCF8114910409F49FCF75
:0A04A0000E9400009CCFF894FFCFEB
:1004AA000C000900060003000D000A000700020004
:0804BA000B000800050004001E
:00000001FF
