:100000000C945D000C9485000C9485000C94850084
:100010000C9485000C9485000C9485000C9485004C
:100020000C9485000C9485000C9485000C9485003C
:100030000C9485000C9485000C9485000C9485002C
:100040000C9446030C9485000C9485000C94850058
:100050000C9485000C9485000C9485000C9485000C
:100060000C9485000C94850000000008000201003B
:100070000003040700000000000000000000000072
:10008000250028002B0000000000240027002A0083
:10009000040404040404040402020202020203032E
:1000A0000303030301020408102040800102040836
:1000B0001020010204081020B90411241FBECFEF44
:1000C000D8E0DEBFCDBF11E0A0E0B1E0E2E0FAE0B1
:1000D00002C005900D92A436B107D9F721E0A4E63D
:1000E000B1E001C01D92A538B207E1F710E0CDE5FF
:1000F000D0E004C02197FE010E94F904CC35D1075D
:10010000C9F70E9490030C94FF040C94000090E047
:10011000FC01EC55FF4F249180579F4FFC018491C7
:10012000882399F090E0880F991FFC01EA57FF4F50
:10013000A591B491FC01E458FF4F859194918FB73C
:10014000F894EC91E22BEC938FBF0895AF92BF929D
:10015000CF92DF92EF92FF920F931F93CF93DF9393
:100160006C017B018B01040F151FEB015E01AE18C2
:10017000BF08C017D10759F06991D601ED91FC91E4
:100180000190F081E02DC6010995892B79F7C50111
:10019000DF91CF911F910F91FF90EF90DF90CF9063
:1001A000BF90AF90089590E0FC01E859FF4F249173
:1001B000FC01EC55FF4F3491FC01E057FF4FE491F7
:1001C000EE23C9F0222339F0233001F1A8F42130C5
:1001D00019F1223029F1F0E0EE0FFF1FE458FF4F34
:1001E000A591B4918FB7F894EC91611126C0309528
:1001F0003E233C938FBF08952730A9F02830C9F0E3
:10020000243049F7809180008F7D03C08091800069
:100210008F7780938000DFCF84B58F7784BDDBCF6D
:1002200084B58F7DFBCF8091B0008F778093B00035
:10023000D2CF8091B0008F7DF9CF3E2BDACF3FB780
:10024000F8948091690190916A01A0916B01B0913D
:100250006C0126B5A89B05C02F3F19F00196A11D82
:10026000B11D3FBFBA2FA92F982F8827BC01CD0100
:10027000620F711D811D911D42E0660F771F881F5F
:10028000991F4A95D1F708958F929F92AF92BF928E
:10029000CF92DF92EF92FF924B015C010E941F010F
:1002A0006B017C010E941F016C197D098E099F0959
:1002B000683E734081059105A8F321E0821A9108F8
:1002C000A108B10888EEC80E83E0D81EE11CF11C1D
:1002D00081149104A104B10429F7FF90EF90DF90FD
:1002E000CF90BF90AF909F908F900895089590E029
:1002F00080E008958F929F92AF92BF920F931F93C9
:10030000CF93DF93CDB7DEB7A1970FB6F894DEBFDA
:100310000FBECDBF19A2423008F44AE08E010F5D36
:100320001F4F842E912CB12CA12CA50194010E9469
:10033000D704E62FB901CA01EA3044F5E05DD801DF
:10034000EE938D01232B242B252B79F790E080E071
:10035000109769F0FD0101900020E9F73197AF0196
:100360004A1B5B0BBD018DE691E00E94A600A196A1
:100370000FB6F894DEBF0FBECDBFDF91CF911F91B6
:100380000F91BF90AF909F908F900895E95CD7CF69
:10039000FC0101900020E9F73197AF01481B590B90
:1003A000BC018DE691E00C94A600CF93DF93EC01A5
:1003B00060E08E810E94D30061E08E810E94D300B4
:1003C00060E08E810E94D3008BE891E00197F1F705
:1003D000DF91CF910895CF92DF92EF92FF920F932A
:1003E0001F93CF93DF936C017C0187E0E80EF11C33
:1003F000D0E0C0E0062F10E0B8010C2E02C07595C9
:1004000067950A94E2F76170F70181917F010E947C
:10041000D3002196C430D10579F7C601DF91CF9181
:100420001F910F91FF90EF90DF90CF900C94D5012A
:10043000CF92DF92EF92FF920F931F93CF93DF93B0
:10044000EC01F62E642F8C810E94D3008D818F3FAA
:1004500019F060E00E94D3000F2D10E08F8584FF1B
:1004600025C06E0187E0C80ED11CF12CE12CB8012B
:100470000E2C02C0759567950A94E2F76170F6013B
:1004800081916F010E94D300FFEFEF1AFF0A88E00D
:10049000E816F10461F7CE01DF91CF911F910F9122
:1004A000FF90EF90DF90CF900C94D501B80184E0DD
:1004B000759567958A95E1F7CE010E94EB016F2D46
:1004C000CE01DF91CF911F910F91FF90EF90DF90C0
:1004D000CF900C94EB0140E0682F8DE691E00C94F6
:1004E000180281E00E946B028BE39FE10197F1F714
:1004F0000895CF93DF93823029F490917C01986026
:1005000090937C01809380011092810180E480931C
:10051000820180E18093830180E580938401809152
:1005200071010E948700809172018F3F11F00E943B
:100530008700809173010E948700CDE6D1E09E0183
:100540002D56314080917C0184FD0AC084E090E00A
:100550002196281739073CF48E810E948700EFCF3F
:1005600088E090E0F5CF8BE39DE00197F1F760E044
:10057000809171010E94D30060E0809173010E941C
:10058000D300809172018F3F19F060E00E94D30088
:1005900080917C0184FD34C063E08DE691E00E948F
:1005A000EB01CBE4D6E4CE010197F1F763E08DE6F1
:1005B00091E00E94EB012197F1F763E08DE691E075
:1005C0000E94EB0183E592E00197F1F762E08DE68E
:1005D00091E00E94EB0180917C0180620E946B029D
:1005E00084E080937D018CE00E946B020E94710286
:1005F00082E080937E0186E0DF91CF910C946B02C4
:1006000080620E946B028BE496E40197F1F780917F
:100610007C0180620E946B0283E592E00197F1F712
:1006200080917C0180620E946B02D5CF9091800105
:10063000891710F08FEF890FE82FF0E0E359FE4F94
:10064000848980680C946B0241E00E94180281E06A
:1006500090E00895CF92DF92EF92FF926B017C01C0
:1006600041E06DE28DE691E00E941802662777274F
:10067000CB016C197D098E099F094AE00E947A011D
:100680000196FF90EF90DF90CF9008951F920F9208
:100690000FB60F9211242F933F938F939F93AF9395
:1006A000BF938091650190916601A0916701B0911F
:1006B00068013091640123E0230F2D3758F501962E
:1006C000A11DB11D20936401809365019093660183
:1006D000A0936701B09368018091690190916A01CC
:1006E000A0916B01B0916C010196A11DB11D809389
:1006F000690190936A01A0936B01B0936C01BF9163
:10070000AF919F918F913F912F910F900FBE0F90BE
:100710001F90189526E8230F0296A11DB11DD2CF78
:10072000789484B5826084BD84B5816084BD85B5CC
:10073000826085BD85B5816085BD80916E008160D8
:1007400080936E001092810080918100826080937E
:100750008100809181008160809381008091800080
:100760008160809380008091B10084608093B100AB
:100770008091B00081608093B00080917A008460A5
:1007800080937A0080917A00826080937A008091D1
:100790007A00816080937A0080917A0080688093EB
:1007A0007A001092C10082E00E94790264E2C62EB3
:1007B00061E0D62E04E111E07CE0E72E71E0F72E37
:1007C000CCE1D1E0888122960E948700F7018081E8
:1007D000F2E0EF0EF11C0E948700F80180810E5FAD
:1007E0001F4F0E948700CC16DD0661F780E00E9453
:1007F000160384E291E00E94C80181E00E94160382
:1008000082E391E00E94C80160ED77E080E090E033
:100810000E9444010E9471022CE0222E21E0322E1F
:1008200034E1832E31E0932E4CE1E42E41E0F42EAE
:10083000412C512C3201439484E1C82E81E0D82E02
:100840009CE0A92E91E0B92E0CE111E0F801808125
:100850000E5F1F4F61E00E94D300F5018081F2E03E
:10086000AF0EB11C60E00E94D300F6018081F2E07F
:10087000CF0ED11C60E00E94D3000C171D0731F78A
:100880000E94710280E00E9416038FE391E00E94B3
:10089000C80181E00E9416038EE491E00E94C80125
:1008A0004AE0C301B2010E947A0184E591E00E940E
:1008B000C801F7011081F2E0EF0EF11C60E0812F1A
:1008C0000E94D300F4010081F2E08F0E911C61E0E0
:1008D000802F0E94D30068EB7BE080E090E00E94D4
:1008E00044010E94710280E00E9416038FE391E0B0
:1008F0000E94C80181E00E9416038EE491E00E94EC
:10090000C8014AE0C301B2010E947A018BE591E07F
:100910000E94C80160E0802F0E94D300F101008195
:10092000F2E02F0E311C61E0802F0E94D30060EDB9
:1009300077E080E090E00E94440160E0802F0E9418
:10094000D30061E0812F0E94D3008FEF481A580A2C
:10095000680A780A95E0491651046104710409F0A7
:100960006BCFE0E0F0E0EF2B09F456CF0E940000DF
:1009700053CFEDE6F1E01382128284E091E091839F
:10098000808383E184838FEF858382E1868381E1A5
:10099000878380E180878FE081878EE0828713865E
:1009A000148615861686178681E00C947902A1E2DA
:1009B0001A2EAA1BBB1BFD010DC0AA1FBB1FEE1FD9
:1009C000FF1FA217B307E407F50720F0A21BB30B24
:1009D000E40BF50B661F771F881F991F1A9469F7A0
:1009E00060957095809590959B01AC01BD01CF01FC
:1009F0000895EE0FFF1F0590F491E02D0994F894EF
:020A0000FFCF26
:100A0200000000002403A600770176010C00090013
:100A1200060003000D000A00070002000B00080098
:100A220005000400342D57617920547261666669AD
:100A3200630053797374656D205265616479005463
:100A4200726166666963205369676E616C004C610E
:100A52006E65200020475245454E002059454C4CBA
:040A62004F570000EA
:00000001FF
