:100000000C945D000C9485000C9485000C94850084
:100010000C9485000C9485000C9485000C9485004C
:100020000C9485000C9485000C9485000C9485003C
:100030000C9485000C9485000C9485000C9485002C
:100040000C94F6030C9485000C9485000C948500A8
:100050000C9485000C9485000C9485000C9485000C
:100060000C9485000C94850000000008000201003B
:100070000003040700000000000000000000000072
:10008000250028002B0000000000240027002A0083
:10009000040404040404040402020202020203032E
:1000A0000303030301020408102040800102040836
:1000B0001020010204081020710511241FBECFEF8B
:1000C000D8E0DEBFCDBF11E0A0E0B1E0E2ECFBE0A4
:1000D00002C005900D92AA32B107D9F721E0AAE239
:1000E000B1E001C01D92AB34B207E1F710E0CDE5FD
:1000F000D0E004C02197FE010E94D905CC35D1077C
:10010000C9F70E9440040C94DF050C94000090E0B5
:10011000FC01EC55FF4F249180579F4FFC018491C7
:10012000882399F090E0880F991FFC01EA57FF4F50
:10013000A591B491FC01E458FF4F859194918FB73C
:10014000F894EC91E22BEC938FBF0895AF92BF929D
:10015000CF92DF92EF92FF920F931F93CF93DF9393
:100160006C017B018B01040F151FEB015E01AE18C2
:10017000BF08C017D10759F06991D601ED91FC91E4
:100180000190F081E02DC6010995892B79F7C50111
:10019000DF91CF911F910F91FF90EF90DF90CF9063
:1001A000BF90AF90089590E0FC01E859FF4F249173
:1001B000FC01EC55FF4F3491FC01E057FF4FE491F7
:1001C000EE23C9F0222339F0233001F1A8F42130C5
:1001D00019F1223029F1F0E0EE0FFF1FE458FF4F34
:1001E000A591B4918FB7F894EC91611126C0309528
:1001F0003E233C938FBF08952730A9F02830C9F0E3
:10020000243049F7809180008F7D03C08091800069
:100210008F7780938000DFCF84B58F7784BDDBCF6D
:1002200084B58F7DFBCF8091B0008F778093B00035
:10023000D2CF8091B0008F7DF9CF3E2BDACF3FB780
:10024000F89480912F0190913001A0913101B091EB
:10025000320126B5A89B05C02F3F19F00196A11DBC
:10026000B11D3FBFBA2FA92F982F8827BC01CD0100
:10027000620F711D811D911D42E0660F771F881F5F
:10028000991F4A95D1F708958F929F92AF92BF928E
:10029000CF92DF92EF92FF920E941F014B015C010F
:1002A00088EEC82E83E0D82EE12CF12C0E941F018D
:1002B000681979098A099B09683E7340810591058F
:1002C000A8F321E0C21AD108E108F10888EE880EEF
:1002D00083E0981EA11CB11CC114D104E104F104F7
:1002E00029F7FF90EF90DF90CF90BF90AF909F9055
:1002F0008F900895089590E080E00895EF92FF9226
:100300000F931F93CF93DF93CCE1D1E08CE0E82EE5
:1003100081E0F82E04E111E08881229661E00E94DC
:10032000D300F7018081F2E0EF0EF11C60E00E9443
:10033000D300F80180810E5F1F4F60E00E94D30060
:10034000F1E0C432DF0741F7DF91CF911F910F91A8
:10035000FF90EF9008958F929F92AF92BF920F936C
:100360001F93CF93DF93CDB7DEB7A1970FB6F89465
:10037000DEBF0FBECDBF19A2423008F44AE08E01A5
:100380000F5D1F4F842E912CB12CA12CA50194013F
:100390000E94A305E62FB901CA01EA3044F5E05DE9
:1003A000D801EE938D01232B242B252B79F790E098
:1003B00080E0109769F0FD0101900020E9F7319786
:1003C000AF014A1B5B0BBD0183E391E00E94A600D5
:1003D000A1960FB6F894DEBF0FBECDBFDF91CF91CF
:1003E0001F910F91BF90AF909F908F900895E95CFF
:1003F000D7CFFC0101900020E9F73197AF01481BEE
:10040000590BBC0183E391E00C94A600CF93DF93DA
:10041000EC0160E08E810E94D30061E08E810E9439
:10042000D30060E08E810E94D3008BE891E00197B9
:10043000F1F7DF91CF910895CF92DF92EF92FF9283
:100440000F931F93CF93DF936C017C0187E0E80E3D
:10045000F11CD0E0C0E0062F10E0B8010C2E02C065
:10046000759567950A94E2F76170F70181917F01B4
:100470000E94D3002196C430D10579F7C601DF91DF
:10048000CF911F910F91FF90EF90DF90CF900C9440
:100490000602CF92DF92EF92FF920F931F93CF93BA
:1004A000DF93EC01F62E642F8C810E94D3008D81A6
:1004B0008F3F19F060E00E94D3000F2D10E08F8570
:1004C00084FF25C06E0187E0C80ED11CF12CE12C01
:1004D000B8010E2C02C0759567950A94E2F7617019
:1004E000F60181916F010E94D300FFEFEF1AFF0A1E
:1004F00088E0E816F10461F7CE01DF91CF911F91FA
:100500000F91FF90EF90DF90CF900C940602B8010E
:1005100084E0759567958A95E1F7CE010E941C02EB
:100520006F2DCE01DF91CF911F910F91FF90EF9032
:10053000DF90CF900C941C0240E0682F83E391E0A1
:100540000C944902CF93DF93823029F490914201B9
:10055000986090934201809346011092470180E495
:100560008093480180E18093490180E580934A01AE
:10057000809137010E948700809138018F3F11F0F0
:100580000E948700809139010E948700C3E3D1E077
:100590009E01235331408091420184FD0AC084E0D2
:1005A00090E02196281739073CF48E810E9487003D
:1005B000EFCF88E090E0F5CF8BE39DE00197F1F776
:1005C00060E0809137010E94D30060E080913901A2
:1005D0000E94D300809138018F3F19F060E00E94A3
:1005E000D3008091420184FD39C063E083E391E050
:1005F0000E941C02CBE4D6E4CE010197F1F763E040
:1006000083E391E00E941C022197F1F763E083E30A
:1006100091E00E941C0283E592E00197F1F762E00D
:1006200083E391E00E941C028091420180620E945B
:100630009C0284E0809343018CE00E949C0281E054
:100640000E949C028BE39FE10197F1F782E0809387
:10065000440186E0DF91CF910C949C0280620E945D
:100660009C028BE496E40197F1F78091420180624D
:100670000E949C0283E592E00197F1F7809142018C
:1006800080620E949C02D0CF41E00E94490281E03A
:1006900090E00895CF92DF92EF92FF9297FF18C0FB
:1006A0006B017C0141E06DE283E391E00E9449022D
:1006B00066277727CB016C197D098E099F094AE0CF
:1006C0000E94AB010196FF90EF90DF90CF900895CC
:1006D0004AE0FF90EF90DF90CF900C94AB013F92F7
:1006E0004F925F926F927F928F929F92AF92BF9242
:1006F000CF92DF920F931F93CF93DF936C01362E2F
:100700002A01890181E00E949C028BE39FE101970D
:10071000F1F7E801812C912C5401839410E000E062
:10072000052C000C66087708E1E0023011050CF496
:10073000E0E0C8018170992723E0880F991F2A956E
:10074000E1F720914601E21710F0EFEFE20FF0E041
:10075000ED5CFE4F9489890F80680E949C0284E2C0
:1007600091E00E94F901C501B4010E944A03C0163C
:10077000D10649F541E0632D83E391E00E944902EF
:1007800086E291E00E94F901C301B2010E944A038E
:100790000F5F1F4F22968FEF881A980AA80AB80A8F
:1007A0000430110509F6DF91CF911F910F91DF9071
:1007B000CF90BF90AF909F908F907F906F905F9001
:1007C0004F903F90089588E291E00E94F90188815E
:1007D00099810A9724F486E291E00E94F9016881E8
:1007E0007981072E000C880B990BD0CF1F920F92A6
:1007F0000FB60F9211242F933F938F939F93AF9334
:10080000BF9380912B0190912C01A0912D01B0916B
:100810002E0130912A0123E0230F2D3758F5019640
:10082000A11DB11D20932A0180932B0190932C01CF
:10083000A0932D01B0932E0180912F019091300152
:10084000A0913101B09132010196A11DB11D80939B
:100850002F0190933001A0933101B0933201BF91E9
:10086000AF919F918F913F912F910F900FBE0F905D
:100870001F90189526E8230F0296A11DB11DD2CF17
:10088000CF93DF93CDB7DEB72E970FB6F894DEBFC8
:100890000FBECDBF789484B5826084BD84B581607D
:1008A00084BD85B5826085BD85B5816085BD80913B
:1008B0006E00816080936E001092810080918100B3
:1008C00082608093810080918100816080938100AB
:1008D000809180008160809380008091B10084606D
:1008E0008093B1008091B00081608093B0008091CE
:1008F0007A00846080937A0080917A00826080938D
:100900007A0080917A00816080937A0080917A00E9
:10091000806880937A001092C10082E00E94A20257
:1009200034E1E32E31E0F32E4CE0C42E41E0D42E2E
:100930000CE111E0F80180810E5F1F4F0E948700DB
:10094000F6018081F2E0CF0ED11C0E948700F701F2
:100950008081F2E0EF0EF11C0E94870061E004321A
:10096000160741F70E947E0124E0822E912C8CE034
:1009700091E09E878D87E4E1F1E0FC87EB878CE1D5
:1009800091E09A87898704E010E02401401A510A17
:100990000E947E01E985FA8560803296FA87E987B0
:1009A00060E0862D0E94D300EB85FC857080329636
:1009B000FC87EB8761E0872D0E94D30096E0E92E4B
:1009C000F12C1701F3E02F1A3108FE01319658017E
:1009D00030E020E06F012415350509F05EC031825A
:1009E00020822F5F3F4F32968FEFA81AB80A24302B
:1009F000310589F79601A10167E4C2010E946F03E6
:100A00000E94440191E0E91AF108E3E0EE16F104D6
:100A1000C1F660E0872D0E94D300ED85FE857080D1
:100A20003296FE87ED8761E0872D0E94D30083E038
:100A3000E82EF12CF601580130E020E024153505B0
:100A400009F03DC0F182E0822F5F3F4F32968FEF79
:100A5000A81AB80A2430310589F79601A70169E57B
:100A6000C2010E946F030E94440191E0E91AF1085B
:100A700009F760E0872D0E94D30061E0862D0E9477
:100A8000D3000150110909F080CFE0E0F0E0EF2B36
:100A900009F46DCF0E9400006ACFC501B4010E9425
:100AA0008F05AC014150510966E0649FC001659F0C
:100AB000900D11248E0D9F1D9183808392CFC501CF
:100AC000B4010E948F05AC014150510966E0649F5A
:100AD000C001659F900D11248E0D9F1D9183808311
:100AE000B3CFE3E3F1E01382128284E091E09183DB
:100AF000808383E184838FEF858382E1868381E134
:100B0000878380E180878FE081878EE082871386EC
:100B1000148615861686178681E00C94A20297FB30
:100B2000072E16F4009407D077FD09D00E94C50562
:100B300007FC05D03EF4909581959F4F08957095E0
:100B400061957F4F0895A1E21A2EAA1BBB1BFD01E0
:100B50000DC0AA1FBB1FEE1FFF1FA217B307E4079C
:100B6000F50720F0A21BB30BE40BF50B661F771FF4
:100B7000881F991F1A9469F76095709580959095D4
:100B80009B01AC01BD01CF010895AA1BBB1B51E124
:100B900007C0AA1FBB1FA617B70710F0A61BB70BED
:100BA000881F991F5A95A9F780959095BC01CD0192
:100BB0000895EE0FFF1F0590F491E02D0994F8942D
:020BC000FFCF65
:100BC200000000004403A6007B017A010C0009002A
:100BD200060003000D000A00070002000B000800D7
:0A0BE200050004004C003000530031
:00000001FF
