:100000000C945D000C9485000C9485000C94850084
:100010000C9485000C9485000C9485000C9485004C
:100020000C9485000C9485000C9485000C9485003C
:100030000C9485000C9485000C9485000C9485002C
:100040000C94DA020C9485000C9485000C948500C5
:100050000C9485000C9485000C9485000C9485000C
:100060000C9485000C94850000000008000201003B
:100070000003040700000000000000000000000072
:10008000250028002B0000000000240027002A0083
:10009000040404040404040402020202020203032E
:1000A0000303030301020408102040800102040836
:1000B00010200102040810205C0411241FBECFEFA1
:1000C000D8E0DEBFCDBF11E0A0E0B1E0E8E9F9E0A3
:1000D00002C005900D92A232B107D9F721E0A2E249
:1000E000B1E001C01D92A534B207E1F710E0CDE503
:1000F000D0E004C02197FE010E94C404CC35D10792
:10010000C9F70E9424030C94CA040C94000090E0E8
:10011000FC01EC55FF4F249180579F4FFC018491C7
:10012000882399F090E0880F991FFC01EA57FF4F50
:10013000A591B491FC01E458FF4F859194918FB73C
:10014000F894EC91E22BEC938FBF0895AF92BF929D
:10015000CF92DF92EF92FF920F931F93CF93DF9393
:100160006C017B018B01040F151FEB015E01AE18C2
:10017000BF08C017D10759F06991D601ED91FC91E4
:100180000190F081E02DC6010995892B79F7C50111
:10019000DF91CF911F910F91FF90EF90DF90CF9063
:1001A000BF90AF90089590E0FC01E859FF4F249173
:1001B000FC01EC55FF4F3491FC01E057FF4FE491F7
:1001C000EE23C9F0222339F0233001F1A8F42130C5
:1001D00019F1223029F1F0E0EE0FFF1FE458FF4F34
:1001E000A591B4918FB7F894EC91611126C0309528
:1001F0003E233C938FBF08952730A9F02830C9F0E3
:10020000243049F7809180008F7D03C08091800069
:100210008F7780938000DFCF84B58F7784BDDBCF6D
:1002200084B58F7DFBCF8091B0008F778093B00035
:10023000D2CF8091B0008F7DF9CF3E2BDACF3FB780
:10024000F8948091270190912801A0912901B09103
:100250002A0126B5A89B05C02F3F19F00196A11DC4
:10026000B11D3FBFBA2FA92F982F8827BC01CD0100
:10027000620F711D811D911D42E0660F771F881F5F
:10028000991F4A95D1F70895089590E080E0089568
:100290008F929F92AF92BF920F931F93CF93DF9352
:1002A000CDB7DEB7A1970FB6F894DEBF0FBECDBFB6
:1002B00019A2423008F44AE08E010F5D1F4F842ED0
:1002C000912CB12CA12CA50194010E948E04E62F43
:1002D000B901CA01EA3044F5E05DD801EE938D0121
:1002E000232B242B252B79F790E080E0109769F0E1
:1002F000FD0101900020E9F73197AF014A1B5B0B2C
:10030000BD018DE291E00E94A600A1960FB6F8947F
:10031000DEBF0FBECDBFDF91CF911F910F91BF9078
:10032000AF909F908F900895E95CD7CFCF93DF93E4
:10033000EC0160E08E810E94D30061E08E810E941A
:10034000D30060E08E810E94D3008BE891E001979A
:10035000F1F7DF91CF910895CF92DF92EF92FF9264
:100360000F931F93CF93DF936C017C0187E0E80E1E
:10037000F11CD0E0C0E0062F10E0B8010C2E02C046
:10038000759567950A94E2F76170F70181917F0195
:100390000E94D3002196C430D10579F7C601DF91C0
:1003A000CF911F910F91FF90EF90DF90CF900C9421
:1003B0009601CF92DF92EF92FF920F931F93CF930C
:1003C000DF93EC01F62E642F8C810E94D3008D8187
:1003D0008F3F19F060E00E94D3000F2D10E08F8551
:1003E00084FF25C06E0187E0C80ED11CF12CE12CE2
:1003F000B8010E2C02C0759567950A94E2F76170FA
:10040000F60181916F010E94D300FFEFEF1AFF0AFE
:1004100088E0E816F10461F7CE01DF91CF911F91DA
:100420000F91FF90EF90DF90CF900C949601B80160
:1004300084E0759567958A95E1F7CE010E94AC013D
:100440006F2DCE01DF91CF911F910F91FF90EF9013
:10045000DF90CF900C94AC0140E0682F8DE291E0EA
:100460000C94D901CF93DF93823029F490913C0111
:10047000986090933C01809340011092410180E488
:100480008093420180E18093430180E580934401A1
:10049000809131010E948700809132018F3F11F0DD
:1004A0000E948700809133010E948700CDE2D1E055
:1004B0009E012D52314080913C0184FD0AC084E0B0
:1004C00090E02196281739073CF48E810E9487001E
:1004D000EFCF88E090E0F5CF8BE39DE00197F1F757
:1004E00060E0809131010E94D30060E0809133018F
:1004F0000E94D300809132018F3F19F060E00E948A
:10050000D30080913C0184FD39C063E08DE291E02D
:100510000E94AC01CBE4D6E4CE010197F1F763E091
:100520008DE291E00E94AC012197F1F763E08DE24A
:1005300091E00E94AC0183E592E00197F1F762E05F
:100540008DE291E00E94AC0180913C0180620E94AA
:100550002C0284E080933D018CE00E942C0281E01B
:100560000E942C028BE39FE10197F1F782E08093D8
:100570003E0186E0DF91CF910C942C0280620E94B4
:100580002C028BE496E40197F1F780913C018062A4
:100590000E942C0283E592E00197F1F780913C01E3
:1005A00080620E942C02D0CF41E00E94D90181E0FC
:1005B00090E008951F920F920FB60F9211242F937F
:1005C0003F938F939F93AF93BF938091230190911B
:1005D0002401A0912501B09126013091220123E050
:1005E000230F2D3758F50196A11DB11D209322012F
:1005F0008093230190932401A0932501B0932601B9
:100600008091270190912801A0912901B0912A01A0
:100610000196A11DB11D8093270190932801A093FD
:100620002901B0932A01BF91AF919F918F913F9182
:100630002F910F900FBE0F901F90189526E8230F53
:100640000296A11DB11DD2CF789484B5826084BD7D
:1006500084B5816084BD85B5826085BD85B58160C6
:1006600085BD80916E00816080936E001092810044
:1006700080918100826080938100809181008160FF
:1006800080938100809180008160809380008091C0
:10069000B10084608093B1008091B000816080934C
:1006A000B00080917A00846080937A0080917A0013
:1006B000826080937A0080917A00816080937A00D2
:1006C00080917A00806880937A001092C10086E061
:1006D0000E94870082E00E94320290E4D92EC8EE88
:1006E000D0E024E6C22E3EE6E32E30E0F32E00E01A
:1006F00010E0D0927C0080917A00806480937A0030
:1007000080917A0086FDFCCF9091780080917900ED
:10071000892798278927BE010E947A04C69E500126
:10072000C79EB00C1124B0922C01A0922B0186E040
:100730000E948700A114B10429F460E086E00E94C1
:10074000D30027C0F7018491833009F499C058F48D
:100750008130D9F0823009F48EC0F0E8AF16B104D0
:1007600064F361E0EBCF873009F494C0883009F47A
:1007700099C0843091F780918000806280938000DE
:10078000B0928B00A0928A0004C084B5806884BDBA
:10079000A7BCE1E0809140018111E0E0E195F0E04B
:1007A000E35DFE4F848980680E942C0240E150E0A6
:1007B0006CE071E08DE291E00E94A600E0914001C2
:1007C000E23008F077C0E150F0E0E35DFE4F84894D
:1007D00080680E942C0280902B0190902C01092CA3
:1007E000000CAA08BB084AE0C501B401B7FE0EC060
:1007F00041E06DE28DE291E00E94D9016627772702
:10080000CB01681979098A099B094AE00E944801CD
:1008100043E050E06DE171E08DE291E00E94A600BE
:100820000E941F012B013C0184E6882E912CA12CF3
:10083000B12C0E941F016419750986099709683E49
:10084000734081059105A8F321E0821A9108A1085F
:10085000B10888EE480E83E0581E611C711C81149B
:100860009104A104B10429F70115110509F441CF40
:100870000E9400003ECF84B5806284BDA8BC89CFB1
:1008800080918000806880938000B0928900A0925F
:1008900088007FCF8091B00080688093B000A092E4
:1008A000B30077CF8091B00080628093B000A092B7
:1008B000B4006FCFE1E088CFEDE2F1E01382128265
:1008C00084E091E0918380838CE084838FEF858343
:1008D0008BE0868385E0878384E0808783E081875F
:1008E00082E082871386148615861686178681E035
:1008F0000C94320297FB072E16F4009407D077FD74
:1009000009D00E94B00407FC05D03EF49095819573
:100910009F4F0895709561957F4F0895A1E21A2E1B
:10092000AA1BBB1BFD010DC0AA1FBB1FEE1FFF1F93
:10093000A217B307E407F50720F0A21BB30BE40BE3
:10094000F50B661F771F881F991F1A9469F760952A
:100950007095809590959B01AC01BD01CF010895E4
:10096000AA1BBB1B51E107C0AA1FBB1FA617B707D5
:1009700010F0A61BB70B881F991F5A95A9F78095F1
:100980009095BC01CD010895EE0FFF1F0590F491E5
:08099000E02D0994F894FFCF5B
:1009980000000000D402A600450144014C45442053
:1009A8004272696768746E6573733A20002020206C
:0209B80000003D
:00000001FF
