:100000000C945D000C9485000C9485000C94850084
:100010000C9485000C9485000C9485000C9485004C
:100020000C9485000C9485000C9485000C9485003C
:100030000C9485000C9485000C9485000C9485002C
:100040000C94E7020C9485000C9485000C948500B8
:100050000C9485000C9485000C9485000C9485000C
:100060000C9485000C94850000000008000201003B
:100070000003040700000000000000000000000072
:10008000250028002B0000000000240027002A0083
:10009000040404040404040402020202020203032E
:1000A0000303030301020408102040800102040836
:1000B0001020010204081020140411241FBECFEFE9
:1000C000D8E0DEBFCDBF11E0A0E0B1E0E2E2F9E0B0
:1000D00002C005900D92A033B107D9F721E0A0E34B
:1000E000B1E001C01D92A135B207E1F710E0CDE506
:1000F000D0E004C02197FE010E948904CC35D107CD
:10010000C9F70E9431030C948F040C94000090E016
:10011000FC01EC55FF4F249180579F4FFC018491C7
:10012000882399F090E0880F991FFC01EA57FF4F50
:10013000A591B491FC01E458FF4F859194918FB73C
:10014000F894EC91E22BEC938FBF0895AF92BF929D
:10015000CF92DF92EF92FF920F931F93CF93DF9393
:100160006C017B018B01040F151FEB015E01AE18C2
:10017000BF08C017D10759F06991D601ED91FC91E4
:100180000190F081E02DC6010995892B79F7C50111
:10019000DF91CF911F910F91FF90EF90DF90CF9063
:1001A000BF90AF90089590E0FC01E859FF4F249173
:1001B000FC01EC55FF4F3491FC01E057FF4FE491F7
:1001C000EE23C9F0222339F0233001F1A8F42130C5
:1001D00019F1223029F1F0E0EE0FFF1FE458FF4F34
:1001E000A591B4918FB7F894EC91611126C0309528
:1001F0003E233C938FBF08952730A9F02830C9F0E3
:10020000243049F7809180008F7D03C08091800069
:100210008F7780938000DFCF84B58F7784BDDBCF6D
:1002200084B58F7DFBCF8091B0008F778093B00035
:10023000D2CF8091B0008F7DF9CF3E2BDACF3FB780
:10024000F8948091350190913601A0913701B091D9
:10025000380126B5A89B05C02F3F19F00196A11DB6
:10026000B11D3FBFBA2FA92F982F8827BC01CD0100
:10027000620F711D811D911D42E0660F771F881F5F
:10028000991F4A95D1F70895089590E080E0089568
:100290008F929F92AF92BF920F931F93CF93DF9352
:1002A000CDB7DEB7A1970FB6F894DEBF0FBECDBFB6
:1002B00019A2423008F44AE08E010F5D1F4F842ED0
:1002C000912CB12CA12CA50194010E945104E62F80
:1002D000B901CA01EA3044F5E05DD801EE938D0121
:1002E000232B242B252B79F790E080E0109769F0E1
:1002F000FD0101900020E9F73197AF014A1B5B0B2C
:10030000BD0189E391E00E94A600A1960FB6F89482
:10031000DEBF0FBECDBFDF91CF911F910F91BF9078
:10032000AF909F908F900895E95CD7CFFC0101902A
:100330000020E9F73197AF01481B590BBC0189E355
:1003400091E00C94A600CF93DF93EC0160E08E81E6
:100350000E94D30061E08E810E94D30060E08E8114
:100360000E94D3008BE891E00197F1F7DF91CF91E4
:100370000895CF92DF92EF92FF920F931F93CF9346
:10038000DF936C017C0187E0E80EF11CD0E0C0E057
:10039000062F10E0B8010C2E02C0759567950A94DF
:1003A000E2F76170F70181917F010E94D3002196ED
:1003B000C430D10579F7C601DF91CF911F910F911C
:1003C000FF90EF90DF90CF900C94A301CF92DF923B
:1003D000EF92FF920F931F93CF93DF93EC01F62ED2
:1003E000642F8C810E94D3008D818F3F19F060E0D3
:1003F0000E94D3000F2D10E08F8584FF25C06E0171
:1004000087E0C80ED11CF12CE12CB8010E2C02C0E3
:10041000759567950A94E2F76170F60181916F0115
:100420000E94D300FFEFEF1AFF0A88E0E816F104FC
:1004300061F7CE01DF91CF911F910F91FF90EF9067
:10044000DF90CF900C94A301B80184E07595679577
:100450008A95E1F7CE010E94B9016F2DCE01DF919F
:10046000CF911F910F91FF90EF90DF90CF900C9460
:10047000B90140E0682F89E391E00C94E601CF9345
:10048000DF93823029F4909148019860909348015D
:1004900080934C0110924D0180E480934E0180E1E5
:1004A00080934F0180E58093500180913D010E942F
:1004B000870080913E018F3F11F00E94870080915C
:1004C0003F010E948700C9E3D1E09E0129533140DA
:1004D0008091480184FD0AC084E090E021962817AD
:1004E00039073CF48E810E948700EFCF88E090E0CE
:1004F000F5CF8BE39DE00197F1F760E080913D013E
:100500000E94D30060E080913F010E94D30080915F
:100510003E018F3F19F060E00E94D30080914801B6
:1005200084FD39C063E089E391E00E94B901CBE426
:10053000D6E4CE010197F1F763E089E391E00E94F0
:10054000B9012197F1F763E089E391E00E94B901D5
:1005500083E592E00197F1F762E089E391E00E9480
:10056000B9018091480180620E94390284E0809341
:1005700049018CE00E94390281E00E9439028BE33C
:100580009FE10197F1F782E080934A0186E0DF91D5
:10059000CF910C94390280620E9439028BE496E478
:1005A0000197F1F78091480180620E94390283E54A
:1005B00092E00197F1F78091480180620E94390230
:1005C000D0CF41E00E94E60181E090E008951F92C3
:1005D0000F920FB60F9211242F933F938F939F93F7
:1005E000AF93BF938091310190913201A09133017B
:1005F000B09134013091300123E0230F2D3758F5AD
:100600000196A11DB11D209330018093310190937B
:100610003201A0933301B093340180913501909160
:100620003601A0913701B09138010196A11DB11D8D
:100630008093350190933601A0933701B093380130
:10064000BF91AF919F918F913F912F910F900FBECE
:100650000F901F90189526E8230F0296A11DB11D3B
:10066000D2CF789484B5826084BD84B5816084BD26
:1006700085B5826085BD85B5816085BD80916E0040
:10068000816080936E001092810080918100826071
:1006900080938100809181008160809381008091AE
:1006A00080008160809380008091B100846080939D
:1006B000B1008091B00081608093B00080917A0099
:1006C000846080937A0080917A00826080937A00BF
:1006D00080917A00816080937A0080917A008068AE
:1006E00080937A001092C10086E00E94870082E029
:1006F0000E943F0210E492E9892E99249394A12C40
:10070000B12CC0E0D0E010937C0080917A0080642E
:1007100080937A0080917A0086FDFCCF80917800EA
:10072000A0917900BA2FA82F24E630E00E9482041D
:10073000A50194010E94320469017A01E1E08091EF
:100740004C018111E0E0E195F0E0E75CFE4F848927
:1007500080680E9439028CE091E00E949601E0914D
:100760004C01E23008F05CC0E150F0E0E75CFE4F85
:10077000848980680E9439028CE191E00E94960190
:10078000E0914C01E23008F04DC0E150F0E0E75C50
:10079000FE4F848980680E9439024AE0C701B60191
:1007A000F7FE0EC041E06DE289E391E00E94E601B0
:1007B00066277727CB016C197D098E099F094AE0CE
:1007C0000E9448018DE291E00E9496010E941F0163
:1007D0002B013C0184E6C82ED12CE12CF12C0E9487
:1007E0001F016419750986099709683E73408105E0
:1007F0009105A8F321E0C21AD108E108F10888EEBA
:10080000480E83E0581E611C711CC114D104E10420
:10081000F10429F7209709F476CF0E94000073CFE6
:10082000E1E0A3CFE1E0B2CFE9E3F1E0138212828D
:1008300084E091E0918380838CE084838FEF8583D3
:100840008BE0868385E0878384E0808783E08187EF
:1008500082E082871386148615861686178681E0C5
:100860000C943F02052E97FB1EF400940E9449044D
:1008700057FD07D00E94510407FC03D04EF40C949E
:10088000490450954095309521953F4F4F4F5F4F0C
:10089000089590958095709561957F4F8F4F9F4FEC
:1008A0000895A1E21A2EAA1BBB1BFD010DC0AA1FB1
:1008B000BB1FEE1FFF1FA217B307E407F50720F0C9
:1008C000A21BB30BE40BF50B661F771F881F991F44
:1008D0001A9469F760957095809590959B01AC018D
:1008E000BD01CF010895A29FB001B39FC001A39F96
:1008F000700D811D1124911DB29F700D811D112459
:10090000911D08950E947304B7FF0895821B930BF5
:100910000895EE0FFF1F0590F491E02D0994F894CF
:02092000FFCF07
:1009220000000000E102A600450144014C454420BC
:100932004272696768746E6573733A0020202020E2
:100942002020202020202020202020200025000000
:00000001FF
