:100000000C945C000C946E000C946E000C946E00CA
:100010000C946E000C946E000C946E000C946E00A8
:100020000C946E000C946E000C946E000C946E0098
:100030000C946E000C946E000C946E000C946E0088
:100040000C94DB000C946E000C946E000C946E000B
:100050000C946E000C946E000C946E000C946E0068
:100060000C946E000C946E00000000080002010069
:100070000003040700000000000000000000000072
:10008000250028002B0000000000240027002A0083
:10009000040404040404040402020202020203032E
:1000A0000303030301020408102040800102040836
:1000B000102001020408102011241FBECFEFD8E049
:1000C000DEBFCDBF21E0A0E0B1E001C01D92A930AC
:1000D000B207E1F70E9425010C94DF010C940000A7
:1000E00090E0FC01EC55FF4F249180579F4FFC019D
:1000F0008491882399F090E0880F991FFC01EA57BA
:10010000FF4FA591B491FC01E458FF4F8591949164
:100110008FB7F894EC91E22BEC938FBF089590E0A9
:10012000FC01E859FF4F2491FC01EC55FF4F34913D
:10013000FC01E057FF4FE491EE23C9F0222339F090
:10014000233001F1A8F4213019F1223029F1F0E037
:10015000EE0FFF1FE458FF4FA591B4918FB7F894AD
:10016000EC91611126C030953E233C938FBF0895DA
:100170002730A9F02830C9F0243049F78091800059
:100180008F7D03C0809180008F7780938000DFCFC8
:1001900084B58F7784BDDBCF84B58F7DFBCF809115
:1001A000B0008F778093B000D2CF8091B0008F7D68
:1001B000F9CF3E2BDACF1F920F920FB60F92112478
:1001C0002F933F938F939F93AF93BF93809105019C
:1001D00090910601A0910701B091080130910401AE
:1001E00023E0230F2D3758F50196A11DB11D209353
:1001F00004018093050190930601A0930701B09339
:1002000008018091000190910101A0910201B0913B
:1002100003010196A11DB11D80930001909301017E
:10022000A0930201B0930301BF91AF919F918F9171
:100230003F912F910F900FBE0F901F90189526E8B9
:10024000230F0296A11DB11DD2CF789484B5826090
:1002500084BD84B5816084BD85B5826085BD85B56A
:10026000816085BD80916E00816080936E001092E8
:100270008100809181008260809381008091810063
:1002800081608093810080918000816080938000F4
:100290008091B10084608093B1008091B000816052
:1002A0008093B00080917A00846080937A0080917E
:1002B0007A00826080937A0080917A0081608093D6
:1002C0007A0080917A00806880937A001092C10051
:1002D0008DE00E94700090E4D92E05E710E020E048
:1002E000E22E20E0F22ED0927C0080917A00806491
:1002F00080937A0080917A0086FDFCCF809178000F
:10030000C0917900DC2FC82FD7FD2396D595C795CE
:10031000D595C7958DE00E947000209751F460E05C
:100320008DE00E948F00E114F104E9F20E940000C8
:10033000DACFCF3FD10511F461E0F2CFF80184911B
:10034000833019F140F48130B1F08230C9F0C03807
:10035000D10594F7E4CF873011F1883041F1843032
:10036000B1F780918000806280938000D0938B00F1
:10037000C0938A00D8CF84B5806884BDC7BDD3CF71
:1003800084B5806284BDC8BDCECF80918000806876
:1003900080938000D0938900C0938800C4CF80915F
:1003A000B00080688093B000C093B300BCCF809150
:1003B000B00080628093B000C093B400B4CFF894D2
:0203C000FFCF6D
:00000001FF
